:100E1D004C756D656E3A2564202000202020202021
:100E2D0020202020004D616E75616C202020004136
:090E3D0075746F6D617469630046
:07000300020D012C0108FFB2
:10000E00C2007580FFC2B5D2B6D2B7D2B7A2879260
:05001E0000C2B7A200C2
:0100230022BA
:100E960012000E40FBC2B5C2B68F80D2B7C2B722CF
:100EA60012000E40FBD2B5C2B68F80D2B7C2B722AF
:100E82007F38120E967F0C120E967F06120E967FF8
:040E920001020E96B5
:0C0CF6008F228C238D248B258A268927D1
:100D0200E4F528532201AE23AF24FC7D281205DA34
:100D12008C238D24E52275F040A424802524FF1223
:100D22000E96C3E5249428E523648094805021AB79
:100D320025AA26A927852882758300120546FF6009
:100D42000F120EA605280524E52470D6052380D2AD
:010D5200227E
:100C0B00EF650C60057F01120E96C3E5149488E521
:100C1B00139413502F7525FF75260E75271DC3745E
:100C2B00589512F52974029511F5287B007A0079F5
:100C3B003E1206DC7B007A00793EE4FDFC7F01125C
:100C4B000CF6801D7BFF7A0E7928E4FDFC7F0112E8
:100C5B000CF6E514B4100AE513B42705E4F513F507
:100C6B00147BFF2009067A0E793280047A0E793CC8
:100C7B00E4FDFCFF120CF67E007F1E7D007B007AEC
:060C8B0000793E02065450
:0C0EB600E50C7005AF08120C0B850C0851
:010EC200220D
:100E6D00538E7F5389F0758AA4758CFFC28DD28CF9
:050E7D00D2A9D2AF2252
:0B0EC300439D0143BCE0D2AFD2AD2242
:100AEF00E5A0547F647FFFE50914600E14607B243A
:100AFF0002707CEF607975090122EF7003F509220E
:100B0F00750902EF24FE601324F2601524F06019BA
:100B1F0024E06033243F7057B20922200951B20AF2
:100B2F0022B20BE4F513F51422300B43E50E2432F9
:100B3F00FDE4350DFCC3ED9458EC94025031743242
:100B4F00250EF50EE4801E300B25E50E24CEFDE5B7
:100B5F000D34FFFCD3ED9400EC9400401274CE25BD
:0F0B6F000EF50E74FF350DF50D22EF7002F5092E
:010B7E002254
:100DAA00200905300A14800330910FAE0DAF0E7C76
:100DBA00007D061205858F168003E4F51620A2072A
:100DCA0030A304D292C29320A30730A204C292D2C3
:0C0DDA009330A20730A304C292C29322FF
:100DE600120E6D120EC3120E82C292C293E50B64EE
:100DF60064450A700A120EB6E4F50AF50B8010E592
:100E0600106464450F7008120AEFE4F50FF51043FD
:070E1600BC08120DAA80D6F2
:03000B00020D5390
:100D5300C0E0C0D0E50B6464450A6008050BE50BF1
:100D63007002050AE5106464450F60080510E5107C
:100D73007002050FE516D395154004C2948002D284
:100D830094E51464107004E5136427600B300B08BA
:100D93000514E514700205130515E515B464037510
:070DA3001500D0D0D0E032B2
:03002B00020C9133
:100C9100C0E0C0F0C083C082C0D075D000C000C029
:100CA10001C002C003C004C005C006C00753BCEFA9
:100CB100AFBD7511008F12AC11AD12E41201D9E470
:100CC100FBFA797F7843120137E4FBFA791678440D
:100CD10012002E1202128E118F12D007D006D005EB
:100CE100D004D003D002D001D000D0D0D082D083A4
:050CF100D0F0D0E0325C
:10002E00EC4D6011E8497017ED33EC3304600DE4CC
:10003E00FCFFFEFD22E933E8330470F802027E1263
:10004E00024958046009E4CC248150062850090264
:10005E000288284003020285C0E0EB4A7044B98052
:10006E0006D0E0FB020274EF4E701CBD8008EBFF61
:10007E00EAFEE9FD80EBE98DF0A4FEE5F002011742
:10008E00E9CDF9EAFEEBFFEF89F0A4FCE5F0CE89AD
:10009E00F0A42EFFE435F0CD89F0A42DFEE435F06A
:1000AE008067EF4E7005BD80D780C3EF8BF0A4AC98
:1000BE00F0EE8BF0A42CFCE435F0F8EF8AF0A42CD3
:1000CE00E5F038FCE433CB8DF0A42CFCE5F03BF8E6
:1000DE00EE8AF0A42CFCE5F038F8E433CF89F0A4D6
:1000EE002CFCE5F038CF3400CE89F0A42FFFE5F0DC
:1000FE003EFEE433C98DF0A42EFEE5F039CD8AF034
:10010E00A42FFFE5F03EFEE43DFD33D0E0FB5007AB
:10011E000BBB000F020288EC2CFCEF33FFEE33FE1C
:06012E00ED33FD0202604A
:10013400020288EC5D046005E85904700302027E43
:10014400120249580460F6EC4860F2EC7004FDFEBB
:10015400FF22C860DB2481C85009C398600250069E
:100164000202859850CAF582E9294B4A7005AB8290
:1001740002027475F0007C1A7880C3EF9BEE9AED4E
:1001840099400DC3EF9BFFEE9AFEED99FDE842F016
:10019400DC23ACF0D0E0FFD0E0FED0E0FDAB822069
:1001A400E7101BEB60BAEC2CFCEF33FFEE33FEEDF3
:1001B40033FD020260E803F830E705C0F075F00093
:1001C400EF2FFFEE33FEED33FD40B830E7C280AAD7
:1001D40075F020800E75F010800575F0087D007EA6
:1001E400007F003392D530D503120610EC33401053
:1001F400EF33FFEE33FEED33FDEC33FCD5F0ED22AF
:0E020400E5F0247EA2D513CC92E7CDCEFF22EA
:10021200EDD2E7CD33EC3392D524814006E4FFFEE4
:10022200FDFC22FCE4CFCECDCC24E0501174FF8043
:10023200EDC3CC13CCCD13CDCE13CECF13CF0470E0
:07024200F030D5DE020610CA
:10068000E5392425F8E60539227822300702782555
:10069000E475F00112061E02052D2000EB7F2ED21C
:1006A000008018EF540F2490D43440D4FF30040B52
:1006B000EF24BFB41A0050032461FFE53A6002152D
:1006C0003A053DE53D7002053C30070D7822E475A2
:1006D000F00112061EEF020573020E467403D207E4
:1006E0008003E4C207F5398B228A238924E4F53A92
:1006F000F53CF53DE53A60077F201206BB80F575B5
:100700003BFFC201C200C202C203C205C206C20848
:10071000120689FF700D3007057F001206CCAF3D31
:10072000AE3C22B4255FC2D5C204120689FF24D094
:10073000B40A00501A75F00A783A30D50508B6FFA9
:100740000106C6A426F620D5047002D20380D9245F
:10075000CFB41A00EF5004C2E5D2040209B9D201A5
:1007600080C6D20080C0D20280BCD2D580BAD20569
:1007700080B47F201206BB2002077401B53A004006
:10078000F1120680FF1206BB0206F4D208D20680E0
:1007900095120680FB120680FA120680F94A4B7009
:1007A0000679B07A0A7BFF20022EE53A602A7E00A5
:1007B0008E8275830012054660060EEE653B70F072
:1007C000C2D5EBC0E0EAC0E0E9C0E0EE120A19D001
:1007D000E0F9D0E0FAD0E0FB12052DFF60AAEBC0F3
:1007E000E0EAC0E0E9C0E01206BBD0E02401F9D0A5
:1007F000E03400FAD0E0FBE53B0460DCD53BD98077
:1008000087D20280A21209FC60F7E53B7001041256
:100810000293A93B600DE53B600914F53B120AA366
:10082000EF60F3EA30E702F404C3995077EAF42565
:100830003B0430E701E404F53B800D1209FC60C184
:10084000EA053B253B120293EA7838F630E701E4EB
:10085000253B04D53B0420050114120A19E4C0E02D
:10086000120AA37838E6601320E70714F61206A3ED
:10087000802204F6D0E014C0E07F001206A3E53B1E
:10088000600712069A153B800B30050312069AD0BA
:10089000E00206F4D0E00480C51209FC60A0E53B4C
:1008A000041202937838EAF6E53B20050260010461
:0508B0002404120A19E6
:1008B50074FF04C0E0120AA31206A3E53B2005025B
:1008C500600312069AD0E0B53BE87F451206AD7885
:1008D50038E67F2B30E7047F2DF404C0E01206BB19
:1008E500D0E075F00A84C0F01206A4D0E01206A488
:1008F5000206F4791080027908C206C2088008D27F
:10090500D5790A8004790AC2D5E53B047002F53B26
:10091500E4FAFDFEFF120680FC7B08200113120697
:1009250080FD7B1030000A120680FE120680FF7BD8
:1009350020EC3382D592D55013C3E43000069FFFD7
:10094500E49EFEE42001039DFDE49CFCE4CBF8C29B
:1009550001EC700CCFCECDCCE824F8F870F38017FD
:10096500C3EF33FFEE33FEED33FDEC33FCEB33FB2E
:10097500994002FB0FD8E9EB300105F8D0E0C448F7
:10098500B201C0E00AEC4D4E4F78207B0070C2EA00
:10099500B53B0040BCC0E0120A1BD0F0D0E02001FE
:1009A50004C4C0E0C4B201C0F01206A4D0F0D5F072
:1009B500EB0206F412062E07915308F85807624C0D
:1009C500075E4208FC4F09044409044907774309B7
:1009D5000A55083B460899450805470AD050076659
:1009E5002D076A2E078D2B076E23078B200AB92A40
:1009F50007264800000785E53BB4FF03753B061253
:100A05000680FC120680FD120680FE120680FF7825
:100A1500310202C2790AA2D5200314300509B910A2
:100A2500020404B9080104A2D520060250010420DD
:100A350002689202B53A005034C0E07F20300319B5
:100A45007F30A20272067205500F120A72C202C2EC
:100A550006C205C2087F30800F300503E9C0E012E9
:100A650006BB300503D0E0F9D0E0B53ACC30051728
:100A75007F30B9100C1206BB7F583004077F788091
:100A850003B908031206BB3002057F2D0206BB7FA2
:100A9500202008F87F2B2006F322920280CF7F00CA
:100AA500B4070050052431F8E6FF22286E756C6CFA
:100AB5002900D2011206803001F8C201783A30D5FA
:100AC5000108F60207262D504349581206802403D3
:100AD500B405004001E4900ACB931206AC743A12B7
:0A0AE50006ACD203753A040208F8CB
:10024900E9D2E7C933E833F892D5EDD2E7CD33ECFB
:0702590033FC5002B2D52274
:10026000EC30E7100FBF000C0EBE00080DBD0004FF
:100270000BEB6014A2D5EB13FCED92E7FD2274FFAB
:10028000FCFDFEFF22E480F8A2D574FF13FC7D8004
:03029000E480EF18
:10029300F920E72824F950037907E4F42402FB1832
:1002A300DBFDE624FB5014E9600DE4F618E604F6E2
:0F02B300B40A08E4F6D9F57401F60A22C2D5227E
:1002C200ED33EC3392D5FA602AB4FF33EDC2E77B0B
:1002D200FF60067A0279E7E4227A0279F020D504F7
:1002E2007A0279EB224E614E002B494E46002D498F
:1002F2004E4600E47A08F608DAFC7B00740722E82E
:10030200C0E0ECC0E0EDC0E0EEC0E0EFC0E0EA75B6
:10031200F010A4CAABF075F04DA42BFBE435F0FC51
:10032200EA2410FAEB34C5FBEC34D9FCEDC2E7FF4A
:1003320075F056A4F42411C5F0F434C58FF0A42A44
:10034200E5F03BE43CF620E7141204EDD0E0FFD0E8
:10035200E0FED0E0FDD0E0FC1201378014F404127C
:1003620004EDD0E0FFD0E0FED0E0FDD0E0FC1200D2
:100372002ED0E0F8E6FAEDD2E7CD33EC332482FB5F
:10038200E4C3CF33CFCE33CECD33CD33DBF37B07D4
:1003920075F00A846004F6081B0AE5F0F6088FF08F
:1003A200740AA4FFACF08EF0740AA42CFEACF050D8
:1003B200010C8DF0740AA42CFDE435F0F608DBDEA6
:0303C2007407229B
:1003C50002027EE86480F8E933E83360110460F0E6
:1003D500ED33EC337009E8FCE9FDEAFEEBFF22049E
:1003E50060DED3EB9FEA9EE99DE8C2E78CF0C2F799
:1003F50095F0400CE8CCF8E9CDF9EACEFAEBCFFB65
:1004050012024985D0F05804700320D5B3E8047072
:10041500075002B2D502028892D5EC0460F7E4CC0D
:10042500C0E0C398F8603B94186008400DD0E0FB2D
:10043500020260E4FBFAC9FC8028E830E406E4C95E
:10044500FBE4CAFCE830E305E4C9CACBFCE8540781
:100455006010F8C3E913F9EA13FAEB13FBEC13FC8C
:10046500D8F130F52FC3E49CFCEF9BFFEE9AFEED2F
:1004750099FDD0E0FBEF4E4D4C701222DB030202DA
:1004850085EC2CFCEF33FFEE33FEED33FDED30E76D
:10049500EB020260EF2BFFEE3AFEED39FDD0E0FBFB
:1004A50050130BBB0003020288ED13FDEE13FEEFA4
:0804B50013FFEC13FC020260CE
:1004BD003F8000004120000042C80000447A000047
:1004CD00461C400047C35000497424004B189680C9
:1004DD004CBEBC205A0E1BCA6753C21C749DC5AEC0
:1004ED00FB60065407601C232312051BEB54386078
:1004FD000912050712051612002EECF8EDF9EEFAA9
:10050D00EFCB22EB12051680F1543803241C900416
:10051D00BDFE93FC0EEE93FD0EEE930ECE93FF22D9
:03000000020B7F71
:0C0B7F00787FE4F6D8FD75815B020BC6A0
:10052D00BB010689828A83E0225002E722BBFE02CC
:09053D00E32289828A83E49322FF
:10054600BB010CE58229F582E5833AF583E022506A
:1005560006E92582F8E622BBFE06E92582F8E222B4
:0D056600E58229F582E5833AF583E49322CE
:10057300BB010689828A83F0225002F722BBFE0167
:02058300F32261
:10058500BC000BBE0029EF8DF084FFADF022E4CC5A
:10059500F875F008EF2FFFEE33FEEC33FCEE9DEC23
:1005A500984005FCEE9DFE0FD5F0E9E4CEFD22ED69
:1005B500F8F5F0EE8420D21CFEADF075F008EF2FB3
:1005C500FFED33FD4007985006D5F0F222C398FDA4
:0505D5000FD5F0EA2241
:1005DA00C2D5EC30E709B2D5E4C39DFDE49CFCEE3C
:1005EA0030E715B2D5E4C39FFFE49EFE120585C32A
:1005FA00E49DFDE49CFC800312058530D507C3E425
:06060A009FFFE49EFE22AA
:0E061000C3E49FFFE49EFEE49DFDE49CFC22FB
:10061E00FAE6FB0808E6F925F0F618E6CA3AF622DD
:10062E00D083D082F8E4937012740193700DA3A35B
:10063E0093F8740193F5828883E47374029368606F
:06064E00EFA3A3A380DF6F
:100E4600EFB40A07740D120E51740A309811A8995E
:100E5600B8130CC2983098FDA899C298B811F6300C
:070E660099FDC299F59922E4
:10065400EF4E6012EF60010EEDBB010B89828A83BD
:10066400F0A3DFFCDEFA2289F05007F709DFFCA9CA
:0C067400F022BBFEFCF309DFFCA9F02221
:100B8B00020DE6E493A3F8E493A34003F68001F28D
:100B9B0008DFF48029E493A3F85407240CC8C3336B
:100BAB00C4540F4420C8834004F456800146F6DF3A
:100BBB00E4800B0102040810204080900003E47EC7
:100BCB00019360BCA3FF543F30E509541FFEE4932F
:100BDB00A360010ECF54C025E060A840B8E493A3F6
:100BEB00FAE493A3F8E493A3C8C582C8CAC583CA21
:100BFB00F0A3C8C582C8CAC583CADFE9DEE780BED9
:01000A0000F5
:00000001FF
